{
  "_format": "hh-sol-artifact-1",
  "contractName": "PaymentReceiver",
  "sourceName": "contracts/PaymentReciever.sol",
  "abi": [
    {
      "anonymous": false,
      "inputs": [
        {
          "indexed": true,
          "internalType": "address",
          "name": "merchant",
          "type": "address"
        },
        {
          "indexed": true,
          "internalType": "address",
          "name": "payer",
          "type": "address"
        },
        {
          "indexed": false,
          "internalType": "address",
          "name": "token",
          "type": "address"
        },
        {
          "indexed": false,
          "internalType": "uint256",
          "name": "amount",
          "type": "uint256"
        }
      ],
      "name": "PaymentReceived",
      "type": "event"
    },
    {
      "inputs": [
        {
          "internalType": "address",
          "name": "merchant",
          "type": "address"
        },
        {
          "internalType": "address",
          "name": "token",
          "type": "address"
        },
        {
          "internalType": "uint256",
          "name": "amount",
          "type": "uint256"
        }
      ],
      "name": "pay",
      "outputs": [],
      "stateMutability": "nonpayable",
      "type": "function"
    }
  ],
  "bytecode": "0x608060405234801561001057600080fd5b50610262806100206000396000f3fe608060405234801561001057600080fd5b506004361061002b5760003560e01c8063b3d7618814610030575b600080fd5b61004361003e3660046101c7565b610045565b005b6001600160a01b0382166100a05760405162461bcd60e51b815260206004820152601f60248201527f4e617469766520746f6b656e206e6f7420737570706f7274656420686572650060448201526064015b60405180910390fd5b6040516323b872dd60e01b81523360048201526001600160a01b038481166024830152604482018390528316906323b872dd906064016020604051808303816000875af11580156100f5573d6000803e3d6000fd5b505050506040513d601f19601f820116820180604052508101906101199190610203565b61015d5760405162461bcd60e51b8152602060048201526015602482015274115490cc8c081d1c985b9cd9995c8819985a5b1959605a1b6044820152606401610097565b604080516001600160a01b038481168252602082018490523392908616917f3606a3042eba5d4f21688cfd2687fdce3af0770bc3ddacb894d5a4a3b0c7de8f910160405180910390a3505050565b80356001600160a01b03811681146101c257600080fd5b919050565b6000806000606084860312156101dc57600080fd5b6101e5846101ab565b92506101f3602085016101ab565b9150604084013590509250925092565b60006020828403121561021557600080fd5b8151801515811461022557600080fd5b939250505056fea2646970667358221220a55479f0bfffc0fcefd5615e2098ffa5d95e3057955bbc1a0b2edab394e3675464736f6c63430008140033",
  "linkReferences": {},
  "deployedLinkReferences": {}
}