{
  "_format": "hh-sol-artifact-1",
  "contractName": "PaymentReceiver",
  "sourceName": "contracts/PaymentReciever.sol",
  "abi": [
    {
      "anonymous": false,
      "inputs": [
        {
          "indexed": true,
          "internalType": "address",
          "name": "merchant",
          "type": "address"
        },
        {
          "indexed": true,
          "internalType": "address",
          "name": "payer",
          "type": "address"
        },
        {
          "indexed": false,
          "internalType": "address",
          "name": "token",
          "type": "address"
        },
        {
          "indexed": false,
          "internalType": "uint256",
          "name": "amount",
          "type": "uint256"
        }
      ],
      "name": "PaymentReceived",
      "type": "event"
    },
    {
      "inputs": [
        {
          "internalType": "address",
          "name": "merchant",
          "type": "address"
        },
        {
          "internalType": "address",
          "name": "token",
          "type": "address"
        },
        {
          "internalType": "uint256",
          "name": "amount",
          "type": "uint256"
        }
      ],
      "name": "pay",
      "outputs": [],
      "stateMutability": "payable",
      "type": "function"
    }
  ],
  "bytecode": "0x608060405234801561001057600080fd5b5061028f806100206000396000f3fe60806040526004361061001e5760003560e01c8063b3d7618814610023575b600080fd5b6100366100313660046101f4565b610038565b005b6001600160a01b0382166100cd578034146100915760405162461bcd60e51b8152602060048201526014602482015273125b98dbdc9c9958dd081d985b1d59481cd95b9d60621b60448201526064015b60405180910390fd5b6040516001600160a01b0384169082156108fc029083906000818181858888f193505050501580156100c7573d6000803e3d6000fd5b5061018a565b6040516323b872dd60e01b81523360048201526001600160a01b038481166024830152604482018390528316906323b872dd906064016020604051808303816000875af1158015610122573d6000803e3d6000fd5b505050506040513d601f19601f820116820180604052508101906101469190610230565b61018a5760405162461bcd60e51b8152602060048201526015602482015274115490cc8c081d1c985b9cd9995c8819985a5b1959605a1b6044820152606401610088565b604080516001600160a01b038481168252602082018490523392908616917f3606a3042eba5d4f21688cfd2687fdce3af0770bc3ddacb894d5a4a3b0c7de8f910160405180910390a3505050565b80356001600160a01b03811681146101ef57600080fd5b919050565b60008060006060848603121561020957600080fd5b610212846101d8565b9250610220602085016101d8565b9150604084013590509250925092565b60006020828403121561024257600080fd5b8151801515811461025257600080fd5b939250505056fea26469706673582212209861cd5a355f29a021e1d311b080202d299bc978663632b89ec6cf980574051264736f6c63430008140033",
  "linkReferences": {},
  "deployedLinkReferences": {}
}